:200000000C9434000C9449000C9449000C9449000C9449000C9449000C9449000C944900AD
:200020000C9449000C9449000C9449000C9449000C9449000C9449000C9449000C94490078
:200040000C9449000C9449000C9449000C9449000C9449000C9449000C9449000C94490058
:200060000C9449000C94490011241FBECFEFD8E0DEBFCDBF11E0A0E0B1E0E8E2F1E002C09E
:2000800005900D92AE30B107D9F70E945B000C9492000C940000E0ECF0E080818260808375
:2000A0001092C50080E18093C400E1ECF0E080818860808308950E944B00259A2FEF33ED91
:2000C00080E3215030408040E1F700C000009DE02D9A2FEF39E688E1215030408040E1F721
:2000E00000C000002D98E0E0F1E08081882381F08A3031F48091C00085FFFCCF9093C600E5
:2001000081912091C00025FFFCCF8093C600EDCF2FEF33ED80E3215030408040E1F700C0FE
:200120000000D6CFF894FFCF48656C6C6F20776F726C640A0000FFFFFFFFFFFFFFFFFFFF84
:20014000FFFFFFFFFFFFFFFFFFFFFFFFFFFFFFFFFFFFFFFFFFFFFFFFFFFFFFFFFFFFFFFFBF
:20016000FFFFFFFFFFFFFFFFFFFFFFFFFFFFFFFFFFFFFFFFFFFFFFFFFFFFFFFFFFFFFFFF9F
:200180000E94490282E090E00E949F0161E085E00E9449028AE090E00E949F0160E085E00A
:2001A0000E94490220EA36E841E050E061E086E00E9479026115710529F0709353016093C6
:2001C000520106C080EA96E8909353018093520180915201909153016AE370E00E94D9054B
:2001E00070935101609350016EE271E08DE591E00E94240560915001709151014AE050E028
:200200008DE591E00E94B60564E670E080E090E00C9479011F920F920FB60F9211242F936B
:200220003F938F939F93AF93BF938091550190915601A0915701B09158013091540123E0E9
:20024000230F2D3720F40196A11DB11D05C026E8230F0296A11DB11D209354018093550137
:2002600090935601A0935701B09358018091590190915A01A0915B01B0915C010196A11D76
:20028000B11D8093590190935A01A0935B01B0935C01BF91AF919F918F913F912F910F9067
:2002A0000FBE0F901F9018953FB7F8948091590190915A01A0915B01B0915C0126B5A89BC4
:2002C00005C02F3F19F00196A11DB11D3FBFBA2FA92F982F8827820F911DA11DB11DBC0102
:2002E000CD0142E0660F771F881F991F4A95D1F70895CF92DF92EF92FF92CF93DF936B013C
:200300007C010E945401EB01C114D104E104F10479F00E9454016C1B7D0B683E7340A0F39E
:2003200081E0C81AD108E108F108C851DC4FECCFDF91CF91FF90EF90DF90CF9008950197DF
:2003400039F0880F991F880F991F02970197F1F70895789484B5826084BD84B5816084BD5D
:2003600085B5826085BD85B5816085BDEEE6F0E0808181608083E1E8F0E01082808182602B
:200380008083808181608083E0E8F0E0808181608083E1EBF0E0808184608083E0EBF0E0D9
:2003A000808181608083EAE7F0E0808184608083808182608083808181608083808180681B
:2003C00080831092C1000895833081F028F4813099F08230A1F008958630A9F08730B9F011
:2003E0008430D1F4809180008F7D03C0809180008F7780938000089584B58F7702C084B523
:200400008F7D84BD08958091B0008F7703C08091B0008F7D8093B0000895CF93DF9390E0F7
:20042000FC01E458FF4F2491FC01E057FF4F8491882361F190E0880F991FFC01E854FF4FA6
:20044000C591D491FC01E255FF4FA591B491611109C09FB7F8948881209582238883EC91DC
:200460002E230BC0623061F49FB7F8943881822F809583238883EC912E2B2C939FBF06C0AE
:200480008FB7F894E8812E2B28838FBFDF91CF9108951F93CF93DF93282F30E0F901E8593A
:2004A000FF4F8491F901E458FF4FD491F901E057FF4FC491CC23C9F0162F81110E94E40116
:2004C000EC2FF0E0EE0FFF1FE255FF4FA591B4918FB7F894111105C09C91ED2FE095E92393
:2004E00002C0EC91ED2BEC938FBFDF91CF911F9108958F929F92AF92BF92CF92DF92EF9284
:20050000FF920F931F93CF93DF9390E0FC01E458FF4FA491FC01E057FF4F8491662311F0D5
:20052000BA2F01C0B0E089019A013F7090E0880F991F8C559F4F480159014FEF841A940A02
:20054000A40AB40AC12CD12C7601FC01C591D49168816A236B131AC05FEFC51AD50AE50A4D
:20056000F50AC814D904EA04FB0479F745C0460157016FEF861A960AA60AB60AC016D10607
:20058000E206F30609F438C075016401FC01C591D49168816A236B13EACFB901A8014C197D
:2005A0005D096E097F096A017B0120E030E0A901FC01C591D49168816A236B130AC02C157E
:2005C0003D054E055F05C1F02F5F3F4F4F4F5F4FEFCFA5E1B0E00E940F06DC01CB014096FF
:2005E000A11DB11DBC01CD0124E096958795779567952A95D1F703C060E070E0CB01DF917B
:20060000CF911F910F91FF90EF90DF90CF90BF90AF909F908F900895FC0124853585F9017B
:20062000E05CFF4F80819181329620813181821B930B8F7399270895DC011C96ED91FC91CE
:200640001D97DF01A05CBF4F2D913C91119712968D919C9111972817390739F08D919C913B
:20066000E80FF91F808190E008958FEF9FEF0895FC01A485B585FD01E05CFF4F2081318179
:200680003296808191812817390779F080819181A80FB91F8C91208131812F5F3F4F2F73C7
:2006A00033273183208390E008958FEF9FEF0895FC0181A1882329F0A489B5898C9186FFE3
:2006C000FBCF11A208950F931F93CF93DF93FC01A685B7858D01005C1F4FE8018881998110
:2006E00001968F739927AD014E5B5F4FEA012881398182179307D1F3E80128813981A20F5A
:20070000B31F6C93A685B785A05CBF4F11969C938E93A689B7892C9181E090E0078C02C04E
:20072000880F991F0A94E2F7822B8C9381E081A30488F589E02D80818064808381E090E0D2
:20074000DF91CF911F910F91089508951F920F920FB60F9211242F934F935F938F939F9368
:20076000EF93FF938091C00082FD1CC02091C600809103029091040201968F73992740915B
:200780000502509106028417950771F0E0910302F0910402ED53FE4F208390930402809368
:2007A000030202C08091C600FF91EF919F918F915F914F912F910F900FBE0F901F90189544
:2007C0008DE591E00E940C03892B11F00C94A50308951F920F920FB60F9211242F933F936A
:2007E0008F939F93EF93FF932091BF013091C0018091C1019091C2012817390731F4809132
:20080000C1008F7D8093C10014C0E091C101F091C201E158FE4F20818091C1019091C2010E
:2008200001968F7399279093C2018093C1012093C600FF91EF919F918F913F912F910F909C
:200840000FBE0F901F901895CF92DF92EF92FF920F931F93CF93DF93EC016A017B0141159A
:20086000514E6105710509F1EC89FD8981E090E008A002C0880F991F0A94E2F7808360E0C4
:2008800079E08DE390E0A70196010E94ED0589019A01015011092109310936952795179525
:2008A0000795980101151041A8F0EC89FD89108260E874E88EE190E0A70196010E94ED0521
:2008C000DA01C9010197A109B109B695A795979587959C01E889F9893083EA89FB892083CB
:2008E00019A2EE89FF89408181E090E09C010C8C02C0220F331F0A94E2F7242B2083EE8952
:20090000FF8940819C010D8C02C0220F331F0A94E2F7242B2083EE89FF8940819C010E8CB3
:2009200002C0220F331F0A94E2F7242B2083EE89FF8920810F8C02C0880F991F0A94E2F746
:20094000809582238083DF91CF911F910F91FF90EF90DF90CF900895EDE5F1E01382128275
:2009600088EE93E0A0E0B0E084839583A683B78384E491E09183808383EC91E09587848705
:200980008FE791E09787868785EC90E0918B808B84EC90E0938B828B80EC90E0958B848B27
:2009A00081EC90E0978B868B82EC90E0918F808F86EC90E0938F828F84E0848F83E0858F17
:2009C00087E0868F85E0878F81E080A30895CF92DF92EF92FF920F931F93CF93DF936C0186
:2009E000EB017B01E40EF51E00E010E0CE15DF0561F06991D601ED91FC910190F081E02DB7
:200A0000C6010995080F191FF1CFC801DF91CF911F910F91FF90EF90DF90CF90089561158A
:200A2000710579F0FB0101900020E9F73197AF01461B570BDC01ED91FC910280F381E02D24
:200A4000099480E090E008950C940F05DC01ED91FC910190F081E02D09940F931F93CF938E
:200A6000DF93EC016DE00E9426058C016AE0CE010E942605800F911FDF91CF911F910F912B
:200A800008950F931F93CF93DF93EC010E940F058C01CE010E942D05800F911FDF91CF91AF
:200AA0001F910F9108958F929F92AF92BF92CF92DF92EF92FF920F931F93CF93DF93CDB7D5
:200AC000DEB7A1970FB6F894DEBF0FBECDBF6C01142FE52FCB01022F19A2223008F40AE04E
:200AE0007E0121E2E20EF11C802E912CA12CB12C612F7E2FA50194010E94ED05029F10198C
:200B0000112481E0E81AF1081A3014F4105D01C0195CF7011083122FE32FCA01232B242B09
:200B2000252B31F7B701C6010E940F05A1960FB6F894DEBF0FBECDBFDF91CF911F910F916A
:200B4000FF90EF90DF90CF90BF90AF909F908F9008952115310541F4DC01ED91FC91019026
:200B6000F081E02D642F09940C9453050F931F93CF93DF93EC019A01AB0160E070E00E9441
:200B8000A9058C01CE010E942D05800F911FDF91CF911F910F9108950E94A9010E948C0001
:200BA000C0EED3E00E94B6002097E1F30E94E003F9CFAA1BBB1B51E107C0AA1FBB1FA617B0
:200BC000B70710F0A61BB70B881F991F5A95A9F780959095BC01CD010895A1E21A2EAA1BF4
:200BE000BB1BFD010DC0AA1FBB1FEE1FFF1FA217B307E407F50720F0A21BB30BE40BF50BB2
:200C0000661F771F881F991F1A9469F760957095809590959B01AC01BD01CF0108950E9402
:200C20002006A59F900DB49F900DA49F800D911D11240895EE0FFF1F0590F491E02D09948E
:200C4000A29FB001B39FC001A39F700D811D1124911DB29F700D811D1124911D0895F894D7
:200C6000FFCF41726120636F6D656EC3A76172656D206120646F6E6172206D6573757265EB
:200C8000732064656C207261646172202E2E2E004C612064697374616E6369612065733A09
:200CA0002000000000006303E7040C0338031C035803FFFFFFFFFFFFFFFFFFFFFFFFFFFF0D
:200CC000FFFFFFFFFFFFFFFFFFFFFFFFFFFFFFFFFFFFFFFFFFFFFFFFFFFFFFFFFFFFFFFF34
:200CE000FFFFFFFFFFFFFFFFFFFFFFFFFFFFFFFFFFFFFFFFFFFFFFFFFFFFFFFFFFFFFFFF14
:200D00008F708D83203E3105F1F0213E310554F4203C3105D1F0203D3105B9F02039310554
:200D200029F511C0243F310571F0253F310524F4203F3105D9F40DC0293F310599F02F3F54
:200D40003105A1F40BC082E001C081E08B832C830DC081E08EA318A61FA208C0CE010E94A5
:200D6000290404C084E192E00E94F504DF91CF91089581E693E00E94DF0E0895AF92BF920B
:200D8000CF92DF92EF92FF920F931F93CF93DF938C01D62EC72EB42EA22E862F972F60E054
:200DA00071E00E94AA01EC018D2D9C2D6FE270E00E949F01209771F07C010894E11CF11C07
:200DC000E114F10439F09E012E5F822F8E19D8018C930EC0AD2DBC2DFD0101900020E9F764
:200DE000ED19EF5FD801EC932D2D3C2DC9017C01F801808190E00E948E00FC01D801129625
:200E00009C938E9311978C91E80FF11D10821196ED91FC911297B0821196ED91FC9112973E
:200E2000A18211968D919C9112974C9150E0425050400296B7010E949001DF91CF911F91C2
:200E40000F91FF90EF90DF90CF90BF90AF9008950F931F938C0181E693E00E94820EC80135
:200E60000E949A046CE271E080E090E00E94BD0CC8010E94F504C8010E9492051F910F91A2
:200E800008950F931F93CF93DF93782FA62F833008F055C090E00196B82FBB0FBB0FBB0F05
:200EA0000197482F440F440F440F51E060E0CA2FD0E001E010E021C0842F82508C3018F015
:200EC0008E508630C0F4242F30E0F901E75AFD4F8081823080F4652BF901EE0FFF1FEC58D0
:200EE000FD4F11821082852F90E08C239D23892B11F011830083550F4F5F4B17E8F277233A
:200F000061F4862F8C7FF8942BB1982F909592238A23982B9BB9789412C0962F90956A239A
:200F2000713039F4F89485B19823962B95B9789406C0F89488B19823962B98B97894DF9177
:200F4000CF911F910F910895482F883018F52091510230915202672B81F481E090E002C055
:200F6000880F991F4A95E2F780959095282339233093520220935102089581E090E002C03C
:200F8000880F991F4A95E2F7282B392B30935202209351020895833028F4E82FF0E0ED5ADC
:200FA000FD4F60830895CF93DF93C0EBD2E0CE010E94C401239682E0C43DD807C1F7DF91DB
:200FC000CF9108950F931F93CF93DF93982F8B01883170F5C82FD0E0FE01E75AFD4FE081E7
:200FE000E33091F0E43021F592509C30D8F49E0122503040C901880F991F820F931F805507
:201000009D4F0E945C020EC0282F22502C3018F08051863038F4903108F0922F892FB8014B
:201020000E94730DCC0FDD1FCC58DD4F19830883DF91CF911F910F9108950E94AF0C209175
:20104000AC023091AD024091AE025091AF02621B730B840B950B655F714080409040A8F098
:2010600060E080915002882309F461E0609350028DE00E94F90D0E94AF0C6093AC02709389
:20108000AD028093AE029093AF020895CF92DF92EF92FF920F931F93CF93DF93D82E8B01CF
:2010A000EEEFCE2EC80E8BE08C15A8F06430710591F08D2D90E00297EC01CC0FDD1FC80FF4
:2010C000D91FC055DD4FCE010E944A02882319F0CE010E94DE014D2D40514830B0F420913E
:2010E0005102309152020230110509F013C181E090E0042E02C0880F991F0A94E2F7282B95
:20110000392B30935202209351029BE09C1510F4463048F52D2D30E0ED2DE695E695E69576
:201120000115110581F4F0E0EF58FD4F2770307081E090E002C0880F991F2A95E2F7208159
:20114000282B208310C0F0E0EF58FD4F2770307081E090E002C0880F991F2A95E2F78095A0
:20116000208182238083ED2CFF24F701EE0FFF1FEC58FD4F1182108202301105C1F00330F6
:20118000110544F40115110589F10130110509F0BAC04AC00430110509F483C004301105C3
:2011A0000CF461C00630110509F0ADC0A0C0483008F0BDC0EBE0EC1510F4463088F4FFE06E
:2011C000FD1510F08D2D01C08C2D60E00E94D30D8FE08D1508F0CD2C8C2D60E00E94F90D64
:2011E000E9E5F2E0EE0EFF1E82E03AC0FBE0FC1518F4463008F09BC08FE08D1510F08D2D4E
:2012000001C08C2D60E00E94D30D9FE09D1508F0CD2C8C2D60E00E94F90DE9E5F2E0EE0E33
:20122000FF1EF701108283C0FBE0FC1518F4463008F07DC08FE08D1510F08D2D01C08C2DDC
:2012400060E00E94F90D9FE09D1508F0CD2C8C2D61E00E94D30DE9E5F2E0EE0EFF1E81E0EE
:20126000F701808364C0FBE0FC1518F4463008F05EC08FE08D1510F08D2D01C08C2D61E045
:201280000E94D30D9FE09D1508F0CD2C8C2D60E070E00E94730DE9E5F2E0EE0EFF1E83E023
:2012A000DFCFFBE0FC1508F442C0F701E75AFD4F84E08083870102501040E801CC0FDD1FC0
:2012C000C00FD11FC055DD4FCE010E944A02882349F48FE08D1508F47801CE01B7010E94BA
:2012E000430325C084E192E065E071E010C0E9E5F2E0EE0EFF1E86E0F701808384E192E095
:2013000065E271E004C084E192E060E471E00E947A050DC081E090E0042E02C0880F991F03
:201320000A94E2F78095909528233923EACEDF91CF911F910F91FF90EF90DF90CF90089504
:201340009F92AF92BF92CF92DF92EF92FF920F931F93CF93DF93262FFA018D3609F4E0C00E
:201360008E3638F4893609F42EC18B3609F047C182C0803739F08A3709F445C08F3609F06D
:201380003EC159C0653008F43AC1D080A180C2809380B4808D2D82508C3008F030C1ED2C65
:2013A000FF24870102501040E801CC0FDD1FC00FD11FC055DD4FCE010E944A02882319F0AF
:2013C000CE010E94DE018FE08D1508F087014C2D50E05695542F4427579547954A0D511D1D
:2013E0002B2D30E03695322F222737952795290D311DCE01B8010E94C4028D2D64E070E0C6
:201400000E944608FCC0623078F0818190E09695982F8827979587952081820F911D9093C8
:20142000DA018093D901EBC084E192E061E571E00E947A05E4C0623008F4E1C08181682F3E
:2014400070E02230A1F0828190E09695982F882797958795682B792B233049F02381922FD5
:201460009295990F990F907C80E0682B792B80810E94E207C4C081E693E060EF0E943A0F2E
:2014800081E693E06CE60E943A0F1EEF00EF1C3010F00630A0F481E693E060E00E943A0F1E
:2014A00081E693E061E00E943A0F81E693E061E00E943A0F81E693E061E00E943A0F0830E2
:2014C00050F481E693E062E00E943A0F81E693E06AE00E943A0F1C3010F00630B0F481E625
:2014E00093E063E00E943A0F81E693E068E00E943A0F1C3050F481E693E064E00E943A0FA5
:2015000081E693E06EE00E943A0F81E693E06FE70E943A0F1F5F0F5F163109F0B8CF6AC0C0
:20152000662309F46CC0008181E693E060EF0E943A0F81E693E06EE60E943A0F81E693E071
:20154000602F0E943A0F083108F054C0C02FD0E0FE01E75AFD4F81E693E060810E943A0FFB
:201560008E01000F111F0C581D4FF80160816F7781E693E00E943A0FF80160817181CB01B0
:201580008078892B49F0660F672F661F770B6F7781E693E00E943A0FCC0FDD1FCC58DD4F82
:2015A00028813981C9018070907C892B19F1330F220B330F322F221F622F6F7781E693E0A0
:2015C0000E943A0F17C081E693E060EF0E943A0F81E693E06AE60E943A0F10EF183010F0D9
:2015E0006FE701C0612F81E693E00E943A0F1F5F1830A1F781E693E067EF0E943A0FDF9196
:20160000CF911F910F91FF90EF90DF90CF90BF90AF909F9008951F93CF93DF93282F162FC2
:20162000C82FD0E0FE01EF58FD4F80811823442331F4FE01EA5AFD4F8081811751F084E1DB
:2016400092E0622F412F50E00E94CB04CA5ADD4F1883DF91CF911F9108951F93CF93DF93E8
:2016600084E192E061E671E042E022E00E94BE0684E192E060EE42EE57E00E94070484E1D3
:2016800092E060E941E457E00E94070484E192E060EC44EA57E00E94070484E192E060ED2D
:2016A0004BEC57E00E94070484E192E064EF46E458E00E94070484E192E060EF40EA59E04D
:2016C0000E94250410E0812F8051883020F4812F62E070E003C0812F61E070E00E944608CC
:2016E0001F5F183181F7109252021092510284E192E040E051EE60E070E00E942807C0E089
:20170000D0E08C2FFE01EF58FD4FE081CC2321F469B16E236C7F08C0C13021F463B16E235E
:201720006F7302C066B16E2341E00E940B0B2196C330D10531F70E94AF0C6093AC027093DB
:20174000AD028093AE029093AF028DE061E00E94D30DDF91CF911F910895809153028823E5
:2017600049F069B18091710268236C7F80E040E00E940B0B80915402882349F063B1809174
:20178000720268236F7381E040E00E940B0B80915502882341F066B180917302682382E061
:2017A00040E00E940B0B0895AF92BF92CF92DF92EF92FF920F931F93CF93DF930E94AD0BBC
:2017C00084E192E00E94B90690934F0280934E02181619063CF480914D02882319F481E004
:2017E00080934D0280914D02882379F40E941D080CC084E192E00E94100684E192E00E9474
:20180000B90690934F0280934E0280914E0290914F02892B71F70E94AF0C6093A40270934A
:20182000A5028093A6029093A702A090A802B090A902C090AA02D090AB022091D901309160
:20184000DA0179010027F7FC0095102F6A197B098C099D09E616F7060807190768F5EA0C88
:20186000FB1C0C1D1D1DE092A802F092A9020093AA021093AB02C9E5D2E010EF1830C0F4BB
:2018800088818230A9F48091510290915202012E02C0959587950A94E2F780FF09C0812F71
:2018A0000E94510DAC0184E192E0612F0E947F051F5F2196183011F7DF91CF911F910F9149
:2018C000FF90EF90DF90CF90BF90AF9008951F920F920FB60F9211242F933F938F939F932C
:2018E000AF93BF938091D8029091D902A091DA02B091DB023091DC020196A11DB11D232F2E
:201900002D5F2D3720F02D570196A11DB11D2093DC028093D8029093D902A093DA02B09352
:20192000DB028091D4029091D502A091D602B091D7020196A11DB11D8093D4029093D502C2
:20194000A093D602B093D702BF91AF919F918F913F912F910F900FBE0F901F9018958FB743
:20196000F8942091D8023091D9024091DA025091DB028FBFB901CA0108959B01AC017FB75A
:20198000F8948091D4029091D502A091D602B091D70266B5A89B05C06F3F19F00196A11D8A
:2019A000B11D7FBFBA2FA92F982F8827860F911DA11DB11D62E0880F991FAA1FBB1F6A95E2
:2019C000D1F7BC012DC0FFB7F8948091D4029091D502A091D602B091D702E6B5A89B05C0AE
:2019E000EF3F19F00196A11DB11DFFBFBA2FA92F982F88278E0F911DA11DB11DE2E0880F68
:201A0000991FAA1FBB1FEA95D1F7861B970B885E9340C8F2215030404040504068517C4FF9
:201A2000211531054105510571F60895789484B5826084BD84B5816084BD85B5826085BD79
:201A400085B5816085BDEEE6F0E0808181608083E1E8F0E0108280818260808380818160AD
:201A60008083E0E8F0E0808181608083E1EBF0E0808184608083E0EBF0E0808181608083E2
:201A8000EAE7F0E08081846080838081826080838081816080838081806880831092C100A3
:201AA0000895982F8E3008F09E5097708091DB018295880F880F807C892B80937C00809195
:201AC0007A00806480937A0080917A0086FDFCCF2091780040917900942F80E030E0282B49
:201AE000392BC90108951F93CF93DF93182FEB0161E00E94D30D209709F44AC0CF3FD105FD
:201B000009F449C0E12FF0E0E255FF4F84918330C1F0843028F4813051F08230B1F50CC0FB
:201B2000863019F1873049F1843079F514C084B5806884BDC7BD33C084B5806284BDC8BD44
:201B40002EC080918000806880938000D0938900C093880024C080918000806280938000DA
:201B6000D0938B00C0938A001AC08091B00080688093B000C093B30012C08091B0008062D9
:201B80008093B000C093B4000AC0C038D1051CF4812F60E002C0812F61E00E94F90DDF9118
:201BA000CF911F910895482F50E0CA0186569F4FFC0124914A575F4FFA0184918823C1F0CF
:201BC000E82FF0E0EE0FFF1FE859FF4FA591B491662341F49FB7F8948C91209582238C93C3
:201BE0009FBF08959FB7F8948C91822B8C939FBF0895482F50E0CA0182559F4FFC0124913B
:201C0000CA0186569F4FFC0134914A575F4FFA019491992309F444C0222351F1233071F006
:201C2000243028F42130A1F0223011F514C02630B1F02730C1F02430D9F404C080918000B1
:201C40008F7703C0809180008F7D8093800010C084B58F7702C084B58F7D84BD09C080915A
:201C6000B0008F7703C08091B0008F7D8093B000E92FF0E0EE0FFF1FEE58FF4FA591B49149
:201C8000662341F49FB7F8948C91309583238C939FBF08959FB7F8948C91832B8C939FBFD8
:201CA00008951F920F920FB60F9211242F933F934F938F939F93EF93FF934091C600E091B4
:201CC0005D03F0915E0331969F012F773070319780915F03909160032817390739F0E35279
:201CE000FD4F408330935E0320935D03FF91EF919F918F914F913F912F910F900FBE0F90C3
:201D00001F901895CF93DF93EC019A01AB01E885F985203081EE380780E0480780E0580708
:201D200009F449C081E090E00A8802C0880F991F0A94E2F7808360E079E08DE390E00E9494
:201D400072112150304040405040CA01B90122E030E040E050E00E947211EC81FD81308365
:201D6000EE81FF812083EA85FB85208141E050E0CA010E8402C0880F991F0A94E2F7282BB8
:201D80002083EA85FB852081CA010F8402C0880F991F0A94E2F7282B2083EA85FB85808144
:201DA000088802C0440F551F0A94E2F7842B8083DF91CF910895108220E130E0CECFDC0157
:201DC0001296ED91FC911397E058FF4F2191319180819181281B390B2F773070C901089565
:201DE000DC011296ED91FC911397EE57FF4F2081318192918291E058F0408217930719F4E5
:201E00002FEF3FEF05C0E20FF31F8081282F30E0C9010895DC011296ED91FC911397DF01C5
:201E2000AE57BF4F2D913C911197E058FF4F80819181E058F0408217930719F42FEF3FEFCF
:201E40000BC0E20FF31F80812F5F3F4F2F7730702D933C93282F30E0C9010895DC0112966F
:201E6000ED91FC911397EE57FF4F80819181929382930895FC01A085B18521898C9190E0A1
:201E8000022E02C0959587950A94E2F780FFF6CF0484F585E02D6083089580EE91E09093BE
:201EA0006203809361038DED92E0909364038093630385EC90E0909366038093650384ECFF
:201EC00090E0909368038093670380EC90E090936A038093690381EC90E090936C0380931A
:201EE0006B0386EC90E090936E0380936D0384E080936F0383E08093700387E080937103BB
:201F000085E08093720381E08093730308950E94160D0E942D0B0E94D40BFDCF0F931F930D
:201F2000CF93DF938C01EB0109C02196D801ED91FC910190F081E02DC80109956881662308
:201F4000A1F7DF91CF911F910F910895EF92FF920F931F93CF93DF938C017B01EA010CC032
:201F6000D7016D917D01D801ED91FC910190F081E02DC80109952197209791F7DF91CF91EC
:201F80001F910F91FF90EF9008952F923F924F925F926F927F928F929F92AF92BF92CF928B
:201FA000DF92EF92FF920F931F93DF93CF93CDB7DEB7A0970FB6F894DEBF0FBECDBF1C01C2
:201FC0006A017B01411551056105710549F440E350E060E070E020E030E00E94801056C01A
:201FE000882499245401422E55246624772401E010E00C0F1D1F080D191DC701B601A3017F
:2020000092010E945011F80160830894811C911CA11CB11CC701B601A30192010E94501125
:20202000C901DA016C017D01C114D104E104F104F1F681E0E82EF12CEC0EFD1EE80CF91CF3
:202040003E010894611C711CD501C4010197A109B1096C01C818D90816C0F601EE0DFF1DF2
:2020600040814A3010F4405D01C0495C552747FD5095652F752FC10120E030E00E9480103D
:202080000894E108F1086E147F0439F7A0960FB6F894DEBF0FBECDBFCF91DF911F910F91F0
:2020A000FF90EF90DF90CF90BF90AF909F908F907F906F905F904F903F902F900895DC0184
:2020C0002115310541F4ED91FC910190F081E02D642F099508950E94C50F0895EF92FF9252
:2020E0000F931F939A01E62EFF2400E010E0B801A7010E945F101F910F91FF90EF9008957D
:20210000EF92FF920F931F93CF93DF93EC017A018B012115310541F4E881F9810190F0810B
:20212000E02D642F09951BC02A303105B1F477FF10C04DE250E060E070E020E030E00E946A
:20214000801010950095F094E094E11CF11C011D111DCE01B801A7012AE00E94C50FDF9147
:20216000CF911F910F91FF90EF900895EF92FF920F931F937B019A010027F7FC0095102F99
:20218000B801A7010E9480101F910F91FF90EF9008952F923F924F925F926F927F928F921A
:2021A0009F92AF92BF92CF92DF92EF92FF920F931F93DF93CF93CDB7DEB73B014C01190194
:2021C0002A016D897E898F89988D6A197B098C099D09621A730A840A950AA40193010E9457
:2021E0001211E218F30804091509A80197010E9472112A0D3B1D4C1D5D1DB901CA01CF91DF
:20220000DF911F910F91FF90EF90DF90CF90BF90AF909F908F907F906F905F904F903F909B
:202220002F900895629FD001739FF001829FE00DF11D649FE00DF11D929FF00D839FF00D06
:20224000749FF00D659FF00D9927729FB00DE11DF91F639FB00DE11DF91FBD01CF01112431
:202260000895991B79E004C0991F961708F0961B881F7A95C9F78095089597FB092E0726C4
:202280000AD077FD04D049D006D000201AF4709561957F4F0895F6F7909581959F4F0895E6
:2022A000A1E21A2EAA1BBB1BFD010DC0AA1FBB1FEE1FFF1FA217B307E407F50720F0A21BF8
:2022C000B30BE40BF50B661F771F881F991F1A9469F760957095809590959B01AC01BD018E
:2022E000CF01089597FB092E05260ED057FD04D0D7DF0AD0001C38F450954095309521956A
:202300003F4F4F4F5F4F0895F6F790958095709561957F4F8F4F9F4F0895AA1BBB1B51E120
:2023200007C0AA1FBB1FA617B70710F0A61BB70B881F991F5A95A9F780959095BC01CD0182
:202340000895EE0FFF1F0590F491E02D0994F894FFCF2E63707000536572766F206F6E6CBE
:2023600079206F6E2070696E732066726F6D203220746F20313300493243206D6F646520BD
:202380006E6F742079657420737570706F7274656400556E6B6E6F776E2070696E206D6F21
:2023A0006465004E6F7420656E6F7567682064617461002F7661722F666F6C646572732FFE
:2023C000714D2F714D625253563343325261522D452B42597048425A2B2B2B2B544D2F2D13
:2023E000546D702D2F6275696C64373231323230393532393437333637393237322E746D4B
:20240000702F5374616E646172644669726D6174615F325F325F666F72554E4F5F305F334D
:202420002E63707000200078030000130001000000003A0F8E0FA60FDF0E0A0F2E0FF00EA0
:20244000714D2F714D625253563343325261522D452B42597048425A2B2B2B2B544D2F2D92
:20246000546D702D2F6275696C64373231323230393532393437333637393237322E746DCA
:20248000FFFFFFFFFFFFFFFFFFFFFFFFFFFFFFFFFFFFFFFFFFFFFFFFFFFFFFFFFFFFFFFF5C
:2024A000FFFFFFFFFFFFFFFFFFFFFFFFFFFFFFFFFFFFFFFFFFFFFFFFFFFFFFFFFFFFFFFF3C
:2024C000FFFFFFFFFFFFFFFFFFFFFFFFFFFFFFFFFFFFFFFFFFFFFFFFFFFFFFFFFFFFFFFF1C
:2024E000FFFFFFFFFFFFFFFFFFFFFFFFFFFFFFFFFFFFFFFFFFFFFFFFFFFFFFFFFFFFFFFFFC
:207E0000112484B714BE81FFF0D085E08093810082E08093C00088E18093C10086E08093FC
:207E2000C20080E18093C4008EE0C9D0259A86E020E33CEF91E0309385002093840096BBAD
:207E4000B09BFECF1D9AA8958150A9F7CC24DD2488248394B5E0AB2EA1E19A2EF3E0BF2E79
:207E6000A2D0813461F49FD0082FAFD0023811F0013811F484E001C083E08DD089C0823404
:207E800011F484E103C0853419F485E0A6D080C0853579F488D0E82EFF2485D0082F10E0A0
:207EA000102F00270E291F29000F111F8ED068016FC0863521F484E090D080E0DECF84364D
:207EC00009F040C070D06FD0082F6DD080E0C81680E7D80618F4F601B7BEE895C0E0D1E0ED
:207EE00062D089930C17E1F7F0E0CF16F0E7DF0618F0F601B7BEE89568D007B600FCFDCF1A
:207F0000A601A0E0B1E02C9130E011968C91119790E0982F8827822B932B1296FA010C016F
:207F200087BEE89511244E5F5F4FF1E0A038BF0751F7F601A7BEE89507B600FCFDCF97BE85
:207F4000E89526C08437B1F42ED02DD0F82E2BD03CD0F601EF2C8F010F5F1F4F84911BD0B8
:207F6000EA94F801C1F70894C11CD11CFA94CF0CD11C0EC0853739F428D08EE10CD085E9AE
:207F80000AD08FE07ACF813511F488E018D01DD080E101D065CF982F8091C00085FFFCCF0A
:207FA0009093C60008958091C00087FFFCCF8091C00084FD01C0A8958091C6000895E0E68F
:207FC000F0E098E1908380830895EDDF803219F088E0F5DFFFCF84E1DECF1F93182FE3DF47
:207FE0001150E9F7F2DF1F91089580E0E8DFEE27FF270994FFFFFFFFFFFFFFFFFFFF040425
:00000001FF
