:100000000C9434000C9451000C9451000C94510049
:100010000C9451000C9451000C9451000C9451001C
:100020000C9451000C9451000C9451000C9451000C
:100030000C9451000C9451000C9451000C945100FC
:100040000C9451000C9451000C9453000C945100EA
:100050000C9451000C9451000C9451000C945100DC
:100060000C9451000C94510011241FBECFEFD8E026
:10007000DEBFCDBF11E0A0E0B1E0E6EEF1E002C0EE
:1000800005900D92AA31B107D9F721E0AAE1B1E0BC
:1000900001C01D92A133B207E1F70E94C3000C9486
:1000A000F1000C9400001F920F920FB60F921124D2
:1000B0002F933F938F939F93EF93FF93E0911B01B7
:1000C000F0911C018091C600E35EFE4F8083809119
:1000D0001B0190911C019C012F5F3F4F30931C012D
:1000E00020931B01FC01E35EFE4F80818D3071F493
:1000F00081E080931A01E0911B01F0911C01E45E04
:10010000FE4F108210921C0110921B01FF91EF9183
:100110009F918F913F912F910F900FBE0F901F9045
:100120001895F8941092C50083E18093C400E0EC28
:10013000F0E0808182608083E1ECF0E0808188697A
:100140008083789408959091C00095FFFCCF8093B0
:10015000C60008950F931F93CF93DF93EC018E0198
:100160008881882359F08A3019F48DE00E94A30019
:100170002196F80180810E94A300F1CFDF91CF91F9
:100180001F910F9108950E94910084E191E00E94D7
:10019000AA002FE78EEE96E3215080409040E1F7D1
:1001A00000C0000080911A01882379F32FB7F894DA
:1001B000E0E0F1E080E090E0DC01A35EBE4F3C9126
:1001C0003193019684319105B9F72FBF10921A012E
:1001D00080E091E00E94AA0088E191E00E94AA00DC
:0601E000D4CFF894FFCF1C
:1001E60068656C6C6F2100000000000000000000D4
:0A01F60000000000686F6C610A0051
:00000001FF
